{
  "contractName": "Elecciones",
  "abi": [
    {
      "constant": true,
      "inputs": [
        {
          "name": "",
          "type": "uint256"
        }
      ],
      "name": "candidatos",
      "outputs": [
        {
          "name": "id",
          "type": "uint256"
        },
        {
          "name": "nombre",
          "type": "string"
        },
        {
          "name": "numeroVotos",
          "type": "uint256"
        }
      ],
      "payable": false,
      "stateMutability": "view",
      "type": "function",
      "signature": "0x8f023f85"
    },
    {
      "inputs": [],
      "payable": false,
      "stateMutability": "view",
      "type": "function",
      "signature": "0xa68ea110",
      "constant": true,
      "name": "candidatosContador",
      "outputs": [
        {
          "name": "",
          "type": "uint256"
        }
      ]
    },
    {
      "inputs": [
        {
          "name": "",
          "type": "address"
        }
      ],
      "payable": false,
      "stateMutability": "view",
      "type": "function",
      "signature": "0xa92284d0",
      "constant": true,
      "name": "votantes",
      "outputs": [
        {
          "name": "",
          "type": "bool"
        }
      ]
    },
    {
      "inputs": [],
      "payable": false,
      "stateMutability": "nonpayable",
      "type": "constructor",
      "signature": "constructor"
    },
    {
      "constant": false,
      "inputs": [
        {
          "name": "_idCandidato",
          "type": "uint256"
        }
      ],
      "name": "voto",
      "outputs": [],
      "payable": false,
      "stateMutability": "nonpayable",
      "type": "function",
      "signature": "0x7c2dc512"
    }
  ],
  "bytecode": "0x608060405234801561001057600080fd5b5061005e6040805190810160405280600b81526020017f43616e64696461746f20310000000000000000000000000000000000000000008152506100b0640100000000026401000000009004565b6100ab6040805190810160405280600b81526020017f43616e64696461746f20320000000000000000000000000000000000000000008152506100b0640100000000026401000000009004565b6101d1565b60016000815480929190600101919050555060606040519081016040528060015481526020018281526020016000815250600080600154815260200190815260200160002060008201518160000155602082015181600101908051906020019061011b92919061012c565b506040820151816002015590505050565b828054600181600116156101000203166002900490600052602060002090601f016020900481019282601f1061016d57805160ff191683800117855561019b565b8280016001018555821561019b579182015b8281111561019a57825182559160200191906001019061017f565b5b5090506101a891906101ac565b5090565b6101ce91905b808211156101ca5760008160009055506001016101b2565b5090565b90565b610402806101e06000396000f3fe608060405260043610610062576000357c0100000000000000000000000000000000000000000000000000000000900463ffffffff1680637c2dc512146100675780638f023f85146100a2578063a68ea11014610164578063a92284d01461018f575b600080fd5b34801561007357600080fd5b506100a06004803603602081101561008a57600080fd5b81019080803590602001909291905050506101f8565b005b3480156100ae57600080fd5b506100db600480360360208110156100c557600080fd5b81019080803590602001909291905050506102ee565b6040518084815260200180602001838152602001828103825284818151815260200191508051906020019080838360005b8381101561012757808201518184015260208101905061010c565b50505050905090810190601f1680156101545780820380516001836020036101000a031916815260200191505b5094505050505060405180910390f35b34801561017057600080fd5b506101796103b0565b6040518082815260200191505060405180910390f35b34801561019b57600080fd5b506101de600480360360208110156101b257600080fd5b81019080803573ffffffffffffffffffffffffffffffffffffffff1690602001909291905050506103b6565b604051808215151515815260200191505060405180910390f35b600260003373ffffffffffffffffffffffffffffffffffffffff1673ffffffffffffffffffffffffffffffffffffffff16815260200190815260200160002060009054906101000a900460ff1615151561025157600080fd5b60008111801561026357506001548111155b151561026e57600080fd5b6001600260003373ffffffffffffffffffffffffffffffffffffffff1673ffffffffffffffffffffffffffffffffffffffff16815260200190815260200160002060006101000a81548160ff0219169083151502179055506000808281526020019081526020016000206002016000815480929190600101919050555050565b6000602052806000526040600020600091509050806000015490806001018054600181600116156101000203166002900480601f0160208091040260200160405190810160405280929190818152602001828054600181600116156101000203166002900480156103a05780601f10610375576101008083540402835291602001916103a0565b820191906000526020600020905b81548152906001019060200180831161038357829003601f168201915b5050505050908060020154905083565b60015481565b60026020528060005260406000206000915054906101000a900460ff168156fea165627a7a72305820628f4b25c6e7c661a11f194dd731b5ec7dd233ec2979d1188a7de305681b10530029",
  "source": "pragma solidity ^0.5.0;\n\ncontract Elecciones {\n\t// Moderar candidato\n\tstruct Candidato {\n\t\tuint id;\n\t\tstring nombre;\n\t\tuint numeroVotos;\n\t}\n\n\t// Almacenar candidatos\n\n\t// Obtener candidatos\n\tmapping(uint => Candidato) public candidatos;\n\n\t// Número candidatos\n\tuint public candidatosContador; \n\n\t// Alamacenar cuentas de gente que ha votado\n    mapping(address => bool) public votantes;\n\n    // Constructor\n    constructor() public {\n    \taniadirCandidato(\"Candidato 1\");\n    \taniadirCandidato(\"Candidato 2\");\n    } \n\n    function aniadirCandidato (string memory _nombre) private {\n        candidatosContador ++;\n        candidatos[candidatosContador] = Candidato(candidatosContador, _nombre, 0);\n    }\n\n    function voto (uint _idCandidato) public {\n        // Requiere que no hayan votado previamente\n        require(!votantes[msg.sender]);\n\n        // Requiere un candidato válido\n        require(_idCandidato > 0 && _idCandidato <= candidatosContador);\n\n        // Alamacena votantes que han votado\n        votantes[msg.sender] = true;\n\n        // Actualizar contador\n        candidatos[_idCandidato].numeroVotos ++;\n    }\n}\n",
  "sourcePath": "/Users/eugenioalcantaragarcia/Documents/GitHub/SWAP/elecciones/contracts/Elecciones.sol",
  "compiler": {
    "name": "solc",
    "version": "0.5.0+commit.1d4f565a.Emscripten.clang"
  },
  "schemaVersion": "3.0.8",
  "updatedAt": "2019-05-03T09:22:17.132Z",
  "devdoc": {
    "methods": {}
  },
  "userdoc": {
    "methods": {}
  }
}